{
  "contractName": "CoffeeShop",
  "abi": [
    {
      "inputs": [
        {
          "internalType": "contract CoffeeToken",
          "name": "_token",
          "type": "address"
        }
      ],
      "stateMutability": "nonpayable",
      "type": "constructor"
    },
    {
      "anonymous": false,
      "inputs": [
        {
          "indexed": true,
          "internalType": "address",
          "name": "account",
          "type": "address"
        },
        {
          "indexed": false,
          "internalType": "uint256",
          "name": "itemid",
          "type": "uint256"
        },
        {
          "indexed": false,
          "internalType": "uint256",
          "name": "amount",
          "type": "uint256"
        },
        {
          "indexed": false,
          "internalType": "string",
          "name": "token",
          "type": "string"
        }
      ],
      "name": "BuyItem",
      "type": "event"
    },
    {
      "anonymous": false,
      "inputs": [
        {
          "indexed": false,
          "internalType": "uint256",
          "name": "id",
          "type": "uint256"
        }
      ],
      "name": "itemRemoved",
      "type": "event"
    },
    {
      "anonymous": false,
      "inputs": [
        {
          "indexed": false,
          "internalType": "uint256",
          "name": "id",
          "type": "uint256"
        },
        {
          "indexed": false,
          "internalType": "uint256",
          "name": "price",
          "type": "uint256"
        }
      ],
      "name": "newAsset",
      "type": "event"
    },
    {
      "inputs": [
        {
          "internalType": "uint256",
          "name": "",
          "type": "uint256"
        }
      ],
      "name": "item",
      "outputs": [
        {
          "internalType": "string",
          "name": "Name",
          "type": "string"
        },
        {
          "internalType": "uint256",
          "name": "ETHPrice",
          "type": "uint256"
        },
        {
          "internalType": "uint256",
          "name": "CLTPrice",
          "type": "uint256"
        },
        {
          "internalType": "string",
          "name": "src",
          "type": "string"
        },
        {
          "internalType": "bool",
          "name": "exist",
          "type": "bool"
        }
      ],
      "stateMutability": "view",
      "type": "function",
      "constant": true
    },
    {
      "inputs": [],
      "name": "name",
      "outputs": [
        {
          "internalType": "string",
          "name": "",
          "type": "string"
        }
      ],
      "stateMutability": "view",
      "type": "function",
      "constant": true
    },
    {
      "inputs": [],
      "name": "owner",
      "outputs": [
        {
          "internalType": "address",
          "name": "",
          "type": "address"
        }
      ],
      "stateMutability": "view",
      "type": "function",
      "constant": true
    },
    {
      "inputs": [],
      "name": "token",
      "outputs": [
        {
          "internalType": "contract CoffeeToken",
          "name": "",
          "type": "address"
        }
      ],
      "stateMutability": "view",
      "type": "function",
      "constant": true
    },
    {
      "inputs": [
        {
          "internalType": "uint256",
          "name": "_id",
          "type": "uint256"
        },
        {
          "internalType": "string",
          "name": "_Name",
          "type": "string"
        },
        {
          "internalType": "uint256",
          "name": "_ethprice",
          "type": "uint256"
        },
        {
          "internalType": "uint256",
          "name": "_cltprice",
          "type": "uint256"
        },
        {
          "internalType": "string",
          "name": "_src",
          "type": "string"
        }
      ],
      "name": "addItem",
      "outputs": [],
      "stateMutability": "nonpayable",
      "type": "function"
    },
    {
      "inputs": [
        {
          "internalType": "uint256",
          "name": "_id",
          "type": "uint256"
        }
      ],
      "name": "removeItem",
      "outputs": [],
      "stateMutability": "nonpayable",
      "type": "function"
    },
    {
      "inputs": [
        {
          "internalType": "uint256",
          "name": "_id",
          "type": "uint256"
        }
      ],
      "name": "bCWETH",
      "outputs": [],
      "stateMutability": "payable",
      "type": "function",
      "payable": true
    },
    {
      "inputs": [
        {
          "internalType": "uint256",
          "name": "_id",
          "type": "uint256"
        }
      ],
      "name": "bCWCLT",
      "outputs": [],
      "stateMutability": "payable",
      "type": "function",
      "payable": true
    },
    {
      "inputs": [
        {
          "internalType": "address",
          "name": "_user",
          "type": "address"
        }
      ],
      "name": "getUserBalance",
      "outputs": [
        {
          "internalType": "uint256",
          "name": "",
          "type": "uint256"
        }
      ],
      "stateMutability": "view",
      "type": "function",
      "constant": true
    },
    {
      "inputs": [],
      "name": "getItemIds",
      "outputs": [
        {
          "internalType": "uint256[]",
          "name": "",
          "type": "uint256[]"
        }
      ],
      "stateMutability": "view",
      "type": "function",
      "constant": true
    },
    {
      "inputs": [
        {
          "internalType": "uint256",
          "name": "_id",
          "type": "uint256"
        }
      ],
      "name": "getItemInfo",
      "outputs": [
        {
          "components": [
            {
              "internalType": "string",
              "name": "Name",
              "type": "string"
            },
            {
              "internalType": "uint256",
              "name": "ETHPrice",
              "type": "uint256"
            },
            {
              "internalType": "uint256",
              "name": "CLTPrice",
              "type": "uint256"
            },
            {
              "internalType": "string",
              "name": "src",
              "type": "string"
            },
            {
              "internalType": "bool",
              "name": "exist",
              "type": "bool"
            }
          ],
          "internalType": "struct CoffeeShop.cafeItem",
          "name": "",
          "type": "tuple"
        }
      ],
      "stateMutability": "view",
      "type": "function",
      "constant": true
    },
    {
      "inputs": [],
      "name": "getContractOwner",
      "outputs": [
        {
          "internalType": "address",
          "name": "",
          "type": "address"
        }
      ],
      "stateMutability": "view",
      "type": "function",
      "constant": true
    }
  ],
  "bytecode": "0x60806040526040518060400160405280600781526020017f4d792053686f7000000000000000000000000000000000000000000000000000815250600090816200004a919062000381565b503480156200005857600080fd5b50604051620026473803806200264783398181016040528101906200007e9190620004e6565b80600160006101000a81548173ffffffffffffffffffffffffffffffffffffffff021916908373ffffffffffffffffffffffffffffffffffffffff16021790555033600260006101000a81548173ffffffffffffffffffffffffffffffffffffffff021916908373ffffffffffffffffffffffffffffffffffffffff1602179055505062000518565b600081519050919050565b7f4e487b7100000000000000000000000000000000000000000000000000000000600052604160045260246000fd5b7f4e487b7100000000000000000000000000000000000000000000000000000000600052602260045260246000fd5b600060028204905060018216806200018957607f821691505b6020821081036200019f576200019e62000141565b5b50919050565b60008190508160005260206000209050919050565b60006020601f8301049050919050565b600082821b905092915050565b600060088302620002097fffffffffffffffffffffffffffffffffffffffffffffffffffffffffffffffff82620001ca565b620002158683620001ca565b95508019841693508086168417925050509392505050565b6000819050919050565b6000819050919050565b6000620002626200025c62000256846200022d565b62000237565b6200022d565b9050919050565b6000819050919050565b6200027e8362000241565b620002966200028d8262000269565b848454620001d7565b825550505050565b600090565b620002ad6200029e565b620002ba81848462000273565b505050565b5b81811015620002e257620002d6600082620002a3565b600181019050620002c0565b5050565b601f8211156200033157620002fb81620001a5565b6200030684620001ba565b8101602085101562000316578190505b6200032e6200032585620001ba565b830182620002bf565b50505b505050565b600082821c905092915050565b6000620003566000198460080262000336565b1980831691505092915050565b600062000371838362000343565b9150826002028217905092915050565b6200038c8262000107565b67ffffffffffffffff811115620003a857620003a762000112565b5b620003b4825462000170565b620003c1828285620002e6565b600060209050601f831160018114620003f95760008415620003e4578287015190505b620003f0858262000363565b86555062000460565b601f1984166200040986620001a5565b60005b8281101562000433578489015182556001820191506020850194506020810190506200040c565b868310156200045357848901516200044f601f89168262000343565b8355505b6001600288020188555050505b505050505050565b600080fd5b600073ffffffffffffffffffffffffffffffffffffffff82169050919050565b60006200049a826200046d565b9050919050565b6000620004ae826200048d565b9050919050565b620004c081620004a1565b8114620004cc57600080fd5b50565b600081519050620004e081620004b5565b92915050565b600060208284031215620004ff57620004fe62000468565b5b60006200050f84828501620004cf565b91505092915050565b61211f80620005286000396000f3fe6080604052600436106100a75760003560e01c8063898e621911610064578063898e6219146101a05780638da5cb5b146101e1578063de7fe3e71461020c578063ef0614b914610249578063f3c5a9d414610274578063fc0c546a1461029d576100a7565b806306fdde03146100ac5780633a5434f2146100d7578063442890d5146100f3578063477348921461011e57806364a053d81461015b5780637132917114610177575b600080fd5b3480156100b857600080fd5b506100c16102c8565b6040516100ce9190611222565b60405180910390f35b6100f160048036038101906100ec919061128e565b610356565b005b3480156100ff57600080fd5b50610108610641565b60405161011591906112fc565b60405180910390f35b34801561012a57600080fd5b5061014560048036038101906101409190611343565b61066b565b604051610152919061137f565b60405180910390f35b6101756004803603810190610170919061128e565b610710565b005b34801561018357600080fd5b5061019e6004803603810190610199919061128e565b610934565b005b3480156101ac57600080fd5b506101c760048036038101906101c2919061128e565b610b8a565b6040516101d89594939291906113b5565b60405180910390f35b3480156101ed57600080fd5b506101f6610cdd565b60405161020391906112fc565b60405180910390f35b34801561021857600080fd5b50610233600480360381019061022e919061128e565b610d03565b60405161024091906114fb565b60405180910390f35b34801561025557600080fd5b5061025e610e83565b60405161026b91906115cc565b60405180910390f35b34801561028057600080fd5b5061029b60048036038101906102969190611723565b610edb565b005b3480156102a957600080fd5b506102b26110de565b6040516102bf9190611835565b60405180910390f35b600080546102d59061187f565b80601f01602080910402602001604051908101604052809291908181526020018280546103019061187f565b801561034e5780601f106103235761010080835404028352916020019161034e565b820191906000526020600020905b81548152906001019060200180831161033157829003601f168201915b505050505081565b6000670de0b6b3a76400009050600115156003600084815260200190815260200160002060040160009054906101000a900460ff161515146103cd576040517f08c379a00000000000000000000000000000000000000000000000000000000081526004016103c4906118fc565b60405180910390fd5b60036000838152602001908152602001600020600101543414610425576040517f08c379a000000000000000000000000000000000000000000000000000000000815260040161041c90611968565b60405180910390fd5b80600160009054906101000a900473ffffffffffffffffffffffffffffffffffffffff1673ffffffffffffffffffffffffffffffffffffffff166370a08231306040518263ffffffff1660e01b815260040161048191906112fc565b602060405180830381865afa15801561049e573d6000803e3d6000fd5b505050506040513d601f19601f820116820180604052508101906104c2919061199d565b10156104cd57600080fd5b600260009054906101000a900473ffffffffffffffffffffffffffffffffffffffff1673ffffffffffffffffffffffffffffffffffffffff166108fc349081150290604051600060405180830381858888f19350505050158015610535573d6000803e3d6000fd5b50600160009054906101000a900473ffffffffffffffffffffffffffffffffffffffff1673ffffffffffffffffffffffffffffffffffffffff1663a9059cbb33836040518363ffffffff1660e01b81526004016105939291906119ca565b6020604051808303816000875af11580156105b2573d6000803e3d6000fd5b505050506040513d601f19601f820116820180604052508101906105d69190611a1f565b503373ffffffffffffffffffffffffffffffffffffffff167faeded2555e9b094a43fc10c1ac6b47ceef48a2833e9a2de124e6c7a0c8b9e0f8836003600086815260200190815260200160002060010154604051610635929190611a98565b60405180910390a25050565b6000600260009054906101000a900473ffffffffffffffffffffffffffffffffffffffff16905090565b6000600160009054906101000a900473ffffffffffffffffffffffffffffffffffffffff1673ffffffffffffffffffffffffffffffffffffffff166370a08231836040518263ffffffff1660e01b81526004016106c891906112fc565b602060405180830381865afa1580156106e5573d6000803e3d6000fd5b505050506040513d601f19601f82011682018060405250810190610709919061199d565b9050919050565b600115156003600083815260200190815260200160002060040160009054906101000a900460ff1615151461077a576040517f08c379a0000000000000000000000000000000000000000000000000000000008152600401610771906118fc565b60405180910390fd5b60006003600083815260200190815260200160002060020154905080600160009054906101000a900473ffffffffffffffffffffffffffffffffffffffff1673ffffffffffffffffffffffffffffffffffffffff166370a08231336040518263ffffffff1660e01b81526004016107f191906112fc565b602060405180830381865afa15801561080e573d6000803e3d6000fd5b505050506040513d601f19601f82011682018060405250810190610832919061199d565b101561083d57600080fd5b600160009054906101000a900473ffffffffffffffffffffffffffffffffffffffff1673ffffffffffffffffffffffffffffffffffffffff166323b872dd3330846040518463ffffffff1660e01b815260040161089c93929190611ad4565b6020604051808303816000875af11580156108bb573d6000803e3d6000fd5b505050506040513d601f19601f820116820180604052508101906108df9190611a1f565b503373ffffffffffffffffffffffffffffffffffffffff167faeded2555e9b094a43fc10c1ac6b47ceef48a2833e9a2de124e6c7a0c8b9e0f88383604051610928929190611b57565b60405180910390a25050565b600260009054906101000a900473ffffffffffffffffffffffffffffffffffffffff1673ffffffffffffffffffffffffffffffffffffffff163373ffffffffffffffffffffffffffffffffffffffff16146109c4576040517f08c379a00000000000000000000000000000000000000000000000000000000081526004016109bb90611bdf565b60405180910390fd5b600115156003600083815260200190815260200160002060040160009054906101000a900460ff16151514610a2e576040517f08c379a0000000000000000000000000000000000000000000000000000000008152600401610a2590611c4b565b60405180910390fd5b6003600082815260200190815260200160002060008082016000610a529190611104565b60018201600090556002820160009055600382016000610a729190611104565b6004820160006101000a81549060ff0219169055505060005b600480549050811015610b4f578160048281548110610aad57610aac611c6b565b5b906000526020600020015403610b3c5760046001600480549050610ad19190611cc9565b81548110610ae257610ae1611c6b565b5b906000526020600020015460048281548110610b0157610b00611c6b565b5b90600052602060002001819055506004805480610b2157610b20611cfd565b5b60019003818190600052602060002001600090559055610b4f565b8080610b4790611d2c565b915050610a8b565b507f3e641a244df1db6c6204c85085034e131cceead8265c4576628071a63172cfa381604051610b7f919061137f565b60405180910390a150565b6003602052806000526040600020600091509050806000018054610bad9061187f565b80601f0160208091040260200160405190810160405280929190818152602001828054610bd99061187f565b8015610c265780601f10610bfb57610100808354040283529160200191610c26565b820191906000526020600020905b815481529060010190602001808311610c0957829003601f168201915b505050505090806001015490806002015490806003018054610c479061187f565b80601f0160208091040260200160405190810160405280929190818152602001828054610c739061187f565b8015610cc05780601f10610c9557610100808354040283529160200191610cc0565b820191906000526020600020905b815481529060010190602001808311610ca357829003601f168201915b5050505050908060040160009054906101000a900460ff16905085565b600260009054906101000a900473ffffffffffffffffffffffffffffffffffffffff1681565b610d0b611144565b600360008381526020019081526020016000206040518060a0016040529081600082018054610d399061187f565b80601f0160208091040260200160405190810160405280929190818152602001828054610d659061187f565b8015610db25780601f10610d8757610100808354040283529160200191610db2565b820191906000526020600020905b815481529060010190602001808311610d9557829003601f168201915b505050505081526020016001820154815260200160028201548152602001600382018054610ddf9061187f565b80601f0160208091040260200160405190810160405280929190818152602001828054610e0b9061187f565b8015610e585780601f10610e2d57610100808354040283529160200191610e58565b820191906000526020600020905b815481529060010190602001808311610e3b57829003601f168201915b505050505081526020016004820160009054906101000a900460ff1615151515815250509050919050565b60606004805480602002602001604051908101604052809291908181526020018280548015610ed157602002820191906000526020600020905b815481526020019060010190808311610ebd575b5050505050905090565b600260009054906101000a900473ffffffffffffffffffffffffffffffffffffffff1673ffffffffffffffffffffffffffffffffffffffff163373ffffffffffffffffffffffffffffffffffffffff1614610f6b576040517f08c379a0000000000000000000000000000000000000000000000000000000008152600401610f6290611dc0565b60405180910390fd5b600015156003600087815260200190815260200160002060040160009054906101000a900460ff16151514610fd5576040517f08c379a0000000000000000000000000000000000000000000000000000000008152600401610fcc90611e2c565b60405180910390fd5b6040518060a00160405280858152602001848152602001838152602001828152602001600115158152506003600087815260200190815260200160002060008201518160000190816110279190611fee565b50602082015181600101556040820151816002015560608201518160030190816110519190611fee565b5060808201518160040160006101000a81548160ff02191690831515021790555090505060048590806001815401808255809150506001900390600052602060002001600090919091909150557fc9743efb4a1cc2dc2c3be07c94e0c4356404e44a1a9b6a1dbbacb0387c4692fe85846040516110cf9291906120c0565b60405180910390a15050505050565b600160009054906101000a900473ffffffffffffffffffffffffffffffffffffffff1681565b5080546111109061187f565b6000825580601f106111225750611141565b601f0160209004906000526020600020908101906111409190611175565b5b50565b6040518060a00160405280606081526020016000815260200160008152602001606081526020016000151581525090565b5b8082111561118e576000816000905550600101611176565b5090565b600081519050919050565b600082825260208201905092915050565b60005b838110156111cc5780820151818401526020810190506111b1565b60008484015250505050565b6000601f19601f8301169050919050565b60006111f482611192565b6111fe818561119d565b935061120e8185602086016111ae565b611217816111d8565b840191505092915050565b6000602082019050818103600083015261123c81846111e9565b905092915050565b6000604051905090565b600080fd5b600080fd5b6000819050919050565b61126b81611258565b811461127657600080fd5b50565b60008135905061128881611262565b92915050565b6000602082840312156112a4576112a361124e565b5b60006112b284828501611279565b91505092915050565b600073ffffffffffffffffffffffffffffffffffffffff82169050919050565b60006112e6826112bb565b9050919050565b6112f6816112db565b82525050565b600060208201905061131160008301846112ed565b92915050565b611320816112db565b811461132b57600080fd5b50565b60008135905061133d81611317565b92915050565b6000602082840312156113595761135861124e565b5b60006113678482850161132e565b91505092915050565b61137981611258565b82525050565b60006020820190506113946000830184611370565b92915050565b60008115159050919050565b6113af8161139a565b82525050565b600060a08201905081810360008301526113cf81886111e9565b90506113de6020830187611370565b6113eb6040830186611370565b81810360608301526113fd81856111e9565b905061140c60808301846113a6565b9695505050505050565b600082825260208201905092915050565b600061143282611192565b61143c8185611416565b935061144c8185602086016111ae565b611455816111d8565b840191505092915050565b61146981611258565b82525050565b6114788161139a565b82525050565b600060a083016000830151848203600086015261149b8282611427565b91505060208301516114b06020860182611460565b5060408301516114c36040860182611460565b50606083015184820360608601526114db8282611427565b91505060808301516114f0608086018261146f565b508091505092915050565b60006020820190508181036000830152611515818461147e565b905092915050565b600081519050919050565b600082825260208201905092915050565b6000819050602082019050919050565b60006115558383611460565b60208301905092915050565b6000602082019050919050565b60006115798261151d565b6115838185611528565b935061158e83611539565b8060005b838110156115bf5781516115a68882611549565b97506115b183611561565b925050600181019050611592565b5085935050505092915050565b600060208201905081810360008301526115e6818461156e565b905092915050565b600080fd5b600080fd5b7f4e487b7100000000000000000000000000000000000000000000000000000000600052604160045260246000fd5b611630826111d8565b810181811067ffffffffffffffff8211171561164f5761164e6115f8565b5b80604052505050565b6000611662611244565b905061166e8282611627565b919050565b600067ffffffffffffffff82111561168e5761168d6115f8565b5b611697826111d8565b9050602081019050919050565b82818337600083830152505050565b60006116c66116c184611673565b611658565b9050828152602081018484840111156116e2576116e16115f3565b5b6116ed8482856116a4565b509392505050565b600082601f83011261170a576117096115ee565b5b813561171a8482602086016116b3565b91505092915050565b600080600080600060a0868803121561173f5761173e61124e565b5b600061174d88828901611279565b955050602086013567ffffffffffffffff81111561176e5761176d611253565b5b61177a888289016116f5565b945050604061178b88828901611279565b935050606061179c88828901611279565b925050608086013567ffffffffffffffff8111156117bd576117bc611253565b5b6117c9888289016116f5565b9150509295509295909350565b6000819050919050565b60006117fb6117f66117f1846112bb565b6117d6565b6112bb565b9050919050565b600061180d826117e0565b9050919050565b600061181f82611802565b9050919050565b61182f81611814565b82525050565b600060208201905061184a6000830184611826565b92915050565b7f4e487b7100000000000000000000000000000000000000000000000000000000600052602260045260246000fd5b6000600282049050600182168061189757607f821691505b6020821081036118aa576118a9611850565b5b50919050565b7f4974656d20646f6573206e6f7420657869737473000000000000000000000000600082015250565b60006118e660148361119d565b91506118f1826118b0565b602082019050919050565b60006020820190508181036000830152611915816118d9565b9050919050565b7f496e636f727265637420616d6f756e74206f662045746865722073656e740000600082015250565b6000611952601e8361119d565b915061195d8261191c565b602082019050919050565b6000602082019050818103600083015261198181611945565b9050919050565b60008151905061199781611262565b92915050565b6000602082840312156119b3576119b261124e565b5b60006119c184828501611988565b91505092915050565b60006040820190506119df60008301856112ed565b6119ec6020830184611370565b9392505050565b6119fc8161139a565b8114611a0757600080fd5b50565b600081519050611a19816119f3565b92915050565b600060208284031215611a3557611a3461124e565b5b6000611a4384828501611a0a565b91505092915050565b7f4554480000000000000000000000000000000000000000000000000000000000600082015250565b6000611a8260038361119d565b9150611a8d82611a4c565b602082019050919050565b6000606082019050611aad6000830185611370565b611aba6020830184611370565b8181036040830152611acb81611a75565b90509392505050565b6000606082019050611ae960008301866112ed565b611af660208301856112ed565b611b036040830184611370565b949350505050565b7f434c540000000000000000000000000000000000000000000000000000000000600082015250565b6000611b4160038361119d565b9150611b4c82611b0b565b602082019050919050565b6000606082019050611b6c6000830185611370565b611b796020830184611370565b8181036040830152611b8a81611b34565b90509392505050565b7f4e6f2070726976696c65676520666f722072656d6f76696e67204974656d0000600082015250565b6000611bc9601e8361119d565b9150611bd482611b93565b602082019050919050565b60006020820190508181036000830152611bf881611bbc565b9050919050565b7f4974656d20646f6573206e6f7420657869737400000000000000000000000000600082015250565b6000611c3560138361119d565b9150611c4082611bff565b602082019050919050565b60006020820190508181036000830152611c6481611c28565b9050919050565b7f4e487b7100000000000000000000000000000000000000000000000000000000600052603260045260246000fd5b7f4e487b7100000000000000000000000000000000000000000000000000000000600052601160045260246000fd5b6000611cd482611258565b9150611cdf83611258565b9250828203905081811115611cf757611cf6611c9a565b5b92915050565b7f4e487b7100000000000000000000000000000000000000000000000000000000600052603160045260246000fd5b6000611d3782611258565b91507fffffffffffffffffffffffffffffffffffffffffffffffffffffffffffffffff8203611d6957611d68611c9a565b5b600182019050919050565b7f4e6f2070726576696c61676520666f7220616464696e67204974656d00000000600082015250565b6000611daa601c8361119d565b9150611db582611d74565b602082019050919050565b60006020820190508181036000830152611dd981611d9d565b9050919050565b7f416c726561647920657869737473000000000000000000000000000000000000600082015250565b6000611e16600e8361119d565b9150611e2182611de0565b602082019050919050565b60006020820190508181036000830152611e4581611e09565b9050919050565b60008190508160005260206000209050919050565b60006020601f8301049050919050565b600082821b905092915050565b600060088302611eae7fffffffffffffffffffffffffffffffffffffffffffffffffffffffffffffffff82611e71565b611eb88683611e71565b95508019841693508086168417925050509392505050565b6000611eeb611ee6611ee184611258565b6117d6565b611258565b9050919050565b6000819050919050565b611f0583611ed0565b611f19611f1182611ef2565b848454611e7e565b825550505050565b600090565b611f2e611f21565b611f39818484611efc565b505050565b5b81811015611f5d57611f52600082611f26565b600181019050611f3f565b5050565b601f821115611fa257611f7381611e4c565b611f7c84611e61565b81016020851015611f8b578190505b611f9f611f9785611e61565b830182611f3e565b50505b505050565b600082821c905092915050565b6000611fc560001984600802611fa7565b1980831691505092915050565b6000611fde8383611fb4565b9150826002028217905092915050565b611ff782611192565b67ffffffffffffffff8111156120105761200f6115f8565b5b61201a825461187f565b612025828285611f61565b600060209050601f8311600181146120585760008415612046578287015190505b6120508582611fd2565b8655506120b8565b601f19841661206686611e4c565b60005b8281101561208e57848901518255600182019150602085019450602081019050612069565b868310156120ab57848901516120a7601f891682611fb4565b8355505b6001600288020188555050505b505050505050565b60006040820190506120d56000830185611370565b6120e26020830184611370565b939250505056fea2646970667358221220c990c8d153cbf669ec21a62403f77c7bee6444ef0e4167c0b1486b6d30e815a664736f6c63430008110033",
  "immutableReferences": {},
  "source": "//SPDX-License-Identifier: MIT\r\npragma solidity ^0.8.17;\r\n\r\nimport './CoffeeToken.sol';\r\n\r\ncontract CoffeeShop{\r\n    string public name = \"My Shop\";\r\n    CoffeeToken public token;\r\n    address public owner;\r\n\r\n    event BuyItem(address indexed account,uint itemid,uint amount,string token);\r\n    event newAsset(uint id,uint price);\r\n    event itemRemoved(uint id);\r\n\r\n    constructor(CoffeeToken _token){\r\n        token = _token;\r\n        owner = msg.sender;\r\n    }\r\n    struct cafeItem{\r\n        string Name;\r\n        uint ETHPrice;\r\n        uint CLTPrice;\r\n        string src;\r\n        bool exist;\r\n    }\r\n\r\n    mapping(uint =>cafeItem) public item;\r\n\r\n    uint[] ids;\r\n\r\n    //add item\r\n    function addItem(uint _id,string memory _Name, uint _ethprice,uint _cltprice,string memory _src) public {\r\n        require(msg.sender==owner,\"No previlage for adding Item\");\r\n        require(item[_id].exist==false,\"Already exists\");\r\n\r\n        item[_id] = cafeItem({\r\n            Name: _Name,\r\n            ETHPrice : _ethprice,\r\n            CLTPrice : _cltprice,\r\n            src : _src,\r\n            exist : true\r\n        });\r\n        ids.push(_id);\r\n        emit newAsset(_id,_ethprice);\r\n    }\r\n\r\n    //remove item\r\n    function removeItem(uint _id) public {\r\n    require(msg.sender == owner, \"No privilege for removing Item\");\r\n    require(item[_id].exist == true, \"Item does not exist\");\r\n\r\n    // Remove the item from the mapping\r\n    delete item[_id];\r\n\r\n    // Find and remove the item ID from the array\r\n    for (uint i = 0; i < ids.length; i++) {\r\n        if (ids[i] == _id) {\r\n            ids[i] = ids[ids.length - 1];\r\n\r\n            ids.pop();\r\n            break;\r\n        }\r\n    }\r\n    emit itemRemoved(_id);\r\n}\r\n\r\n    //Buy Coffee With ETH token\r\n    function bCWETH(uint _id) public payable{ \r\n        uint tokenAmount = 1000000000000000000;\r\n        require(item[_id].exist == true,\"Item does not exists\");\r\n        require(msg.value == item[_id].ETHPrice,\"Incorrect amount of Ether sent\");\r\n        require(token.balanceOf(address(this))>= tokenAmount);\r\n\r\n        payable(owner).transfer(msg.value);\r\n\r\n        token.transfer(msg.sender,tokenAmount);\r\n        emit BuyItem(msg.sender,_id,item[_id].ETHPrice,\"ETH\");\r\n    }\r\n\r\n    function bCWCLT(uint _id) public payable{\r\n        require(item[_id].exist== true,\"Item does not exists\");\r\n        uint tokenAmount = item[_id].CLTPrice;\r\n        require(token.balanceOf(msg.sender)>= tokenAmount);\r\n        \r\n        token.transferFrom(msg.sender, address(this), tokenAmount);\r\n        emit BuyItem(msg.sender,_id,tokenAmount,\"CLT\");\r\n    }\r\n\r\n    function getUserBalance(address _user) public view returns(uint){\r\n        return token.balanceOf(_user);\r\n    }\r\n\r\n    function getItemIds() public view returns(uint[] memory){\r\n        return ids;\r\n    }\r\n    function getItemInfo(uint _id) public view returns(cafeItem memory){\r\n        return item[_id];\r\n    }\r\n    function getContractOwner() public view returns(address){\r\n        return owner;\r\n    }\r\n}",
  "sourcePath": "D:\\My\\BlockchainAPPTest\\coffeeshop\\src\\contracts\\CoffeeShop.sol",
  "compiler": {
    "name": "solc",
    "version": "0.8.17+commit.8df45f5f.Emscripten.clang"
  },
  "schemaVersion": "3.4.13",
  "updatedAt": "2023-06-01T14:16:44.655Z",
  "networkType": "ethereum",
  "devdoc": {
    "kind": "dev",
    "methods": {},
    "version": 1
  },
  "userdoc": {
    "kind": "user",
    "methods": {},
    "version": 1
  }
}